{
  "_format": "hh-sol-artifact-1",
  "contractName": "Random",
  "sourceName": "contracts/Random.sol",
  "abi": [
    {
      "inputs": [],
      "name": "Generate_Number",
      "outputs": [
        {
          "internalType": "uint8",
          "name": "",
          "type": "uint8"
        }
      ],
      "stateMutability": "nonpayable",
      "type": "function"
    },
    {
      "inputs": [],
      "name": "rand_num",
      "outputs": [
        {
          "internalType": "uint8",
          "name": "",
          "type": "uint8"
        }
      ],
      "stateMutability": "view",
      "type": "function"
    }
  ],
  "bytecode": "0x608060405234801561001057600080fd5b50610367806100206000396000f3fe608060405234801561001057600080fd5b50600436106100365760003560e01c8063678892c01461003b5780639897c24014610059575b600080fd5b610043610077565b6040516100509190610199565b60405180910390f35b610061610088565b60405161006e9190610199565b60405180910390f35b60008054906101000a900460ff1681565b6000804340905060004282336040516020016100a69392919061015c565b6040516020818303038152906040528051906020012060001c905060016014826100d09190610295565b6100da91906101b4565b6000806101000a81548160ff021916908360ff16021790555060008054906101000a900460ff169250505090565b6101196101148261020a565b61025d565b82525050565b61013061012b8261021c565b61026f565b82525050565b61014761014282610246565b61028b565b82525050565b61015681610250565b82525050565b60006101688286610136565b602082019150610178828561011f565b6020820191506101888284610108565b601482019150819050949350505050565b60006020820190506101ae600083018461014d565b92915050565b60006101bf82610246565b91506101ca83610246565b9250827fffffffffffffffffffffffffffffffffffffffffffffffffffffffffffffffff038211156101ff576101fe6102c6565b5b828201905092915050565b600061021582610226565b9050919050565b6000819050919050565b600073ffffffffffffffffffffffffffffffffffffffff82169050919050565b6000819050919050565b600060ff82169050919050565b600061026882610279565b9050919050565b6000819050919050565b600061028482610324565b9050919050565b6000819050919050565b60006102a082610246565b91506102ab83610246565b9250826102bb576102ba6102f5565b5b828206905092915050565b7f4e487b7100000000000000000000000000000000000000000000000000000000600052601160045260246000fd5b7f4e487b7100000000000000000000000000000000000000000000000000000000600052601260045260246000fd5b60008160601b905091905056fea2646970667358221220f4b3f18199e17a1f6479efb82bfedf6053f7f45fb321bd08c1a12fb0e43c2d7164736f6c63430008000033",
  "linkReferences": {},
  "deployedLinkReferences": {}
}